:020000020000FC
:0200000020C01E
:10004000D7C0789403E005BD61E060936E0008E0DE
:1000500007B9439A08E304B907EC05B920E040E08A
:1000600081E066E050E4D1E0C0E009E1088308E106
:10007000098309E10A8309E10B8309E10C8309E1A2
:100080000D8309E10E8309E10F8300E1088701E197
:10009000098702E10A870AE00B8703E10C8704E184
:1000A0000D8708E10E8700E00F8700C0579A569A27
:1000B000559A549A5B9A5A9A599A589A5F985E9AA6
:1000C0005D9A5C9A00004B9B44C04A9B45C0499B8B
:1000D00046C0489B56C000005F9A5E985D9A5C9A45
:1000E00000004B9B2DC04A9B2EC0499B2FC0489BB4
:1000F00045C05F9A5E9A5D985C9A00004B9B17C062
:100100004A9B18C0499B19C0489B35C05F9A5E9AAC
:100110005D9A5C9800004B9B25C04A9B05C0499B9B
:1001200024C0489B25C030C010E080E0BFCF11E064
:1001300080E0BCCF12E080E0B9CF13E080E0B6CF22
:1001400014E080E0B3CF15E080E0B0CF16E080E0AF
:10015000ADCF17E080E0AACF18E080E0A7CF19E08C
:1001600080E0A4CF1AE080E0A1CF1BE080E09ECF2A
:100170001CE080E09BCF1DE080E098CF1EE080E097
:1001800095CF1FE080E092CF813009F001C08ECF83
:1001900018834395453029F04F8781E0121719F0F5
:1001A0001CC00C942100439805E10B8302E10C83F1
:1001B00006E10D8309E10E8300E0000011E000007C
:1001C000000028EC0000000000002395D9F71395EB
:1001D000B1F7039591F70C942100439A03E10B8347
:1001E00007E10C8304E10D8300E10E8323955ECFCC
:1001F0000F930FE3B6E0B09326003FE0D1E0C0E0FC
:10020000C30FA881F2E0ECECAA0FEA0F0024F01D66
:10021000749131969491E72FF92F0024E60FF01D89
:10022000A4912B9AA0FF1B9A2D9A2D982B9AA1FF8F
:100230001B9A2D9A2D982B9AA2FF1B9A2D9A2D98D6
:100240002B9AA3FF1B9A2D9A2D982B9AA4FF1B9AE9
:100250002D9A2D983A9592F61B9A1D9A1D9A000098
:1002600000002B9A56FF1B9A2D9A2D982B9A55FF1A
:100270001B9A2D9A2D982B9A54FF1B9A2D9A2D98E4
:100280002B9A53FF1B9A2D9A2D982B9A52FF1B9A4B
:100290002D9A2D982B9A51FF1B9A2D9A2D982B9AB7
:1002A00050FF1B9A2D9A2D983FEF6A95569555232E
:1002B00011F450E466E01C9A000000000000000009
:1002C0003A95C9F71C9A0FBF0F91189570037803E0
:1002D0008003880390039803A003A803B003B80326
:1002E0000003080310031803200328033003380316
:1002F000400348035003580360036803C003C80366
:100300000C12121E121212001C12121C12121C00CD
:100310000E10101010100E001C12121212121C00DF
:100320001E10101C10101E001E10101C10101000AB
:100330001F040404040404001E12121E18141200E8
:100340000E04040404040E001010101010101E00FF
:100350000E10100C02021C0011111111151B1100BE
:10036000121A1612121212001E12121212121E006D
:100370001E12121212121E00040C040404040400C3
:100380001E02021E10101E001E02020E02021E009D
:100390001414141E040404001E10101E02021E0079
:1003A0001E10101E12121E001E020404040404007B
:1003B0001E12121E12121E001E12121E02021E0019
:1003C0000000040004000000000000000000000025
:00000001FF
